{"abi":[{"type":"constructor","inputs":[],"stateMutability":"nonpayable"},{"type":"function","name":"DEFAULT_ADMIN_ROLE","inputs":[],"outputs":[{"name":"","type":"bytes32","internalType":"bytes32"}],"stateMutability":"view"},{"type":"function","name":"KYC_PROVIDER_ROLE","inputs":[],"outputs":[{"name":"","type":"bytes32","internalType":"bytes32"}],"stateMutability":"view"},{"type":"function","name":"addressToIdentityId","inputs":[{"name":"","type":"address","internalType":"address"}],"outputs":[{"name":"","type":"uint256","internalType":"uint256"}],"stateMutability":"view"},{"type":"function","name":"attestIdentity","inputs":[{"name":"account","type":"address","internalType":"address"},{"name":"attrs","type":"tuple","internalType":"struct IdentityRegistry.IdentityAttributes","components":[{"name":"countryCode","type":"uint16","internalType":"uint16"},{"name":"accredited","type":"uint8","internalType":"uint8"},{"name":"expiry","type":"uint64","internalType":"uint64"},{"name":"kycHash","type":"bytes32","internalType":"bytes32"}]}],"outputs":[],"stateMutability":"nonpayable"},{"type":"function","name":"getIdentity","inputs":[{"name":"account","type":"address","internalType":"address"}],"outputs":[{"name":"","type":"tuple","internalType":"struct IdentityRegistry.IdentityAttributes","components":[{"name":"countryCode","type":"uint16","internalType":"uint16"},{"name":"accredited","type":"uint8","internalType":"uint8"},{"name":"expiry","type":"uint64","internalType":"uint64"},{"name":"kycHash","type":"bytes32","internalType":"bytes32"}]}],"stateMutability":"view"},{"type":"function","name":"getRoleAdmin","inputs":[{"name":"role","type":"bytes32","internalType":"bytes32"}],"outputs":[{"name":"","type":"bytes32","internalType":"bytes32"}],"stateMutability":"view"},{"type":"function","name":"grantRole","inputs":[{"name":"role","type":"bytes32","internalType":"bytes32"},{"name":"account","type":"address","internalType":"address"}],"outputs":[],"stateMutability":"nonpayable"},{"type":"function","name":"hasRole","inputs":[{"name":"role","type":"bytes32","internalType":"bytes32"},{"name":"account","type":"address","internalType":"address"}],"outputs":[{"name":"","type":"bool","internalType":"bool"}],"stateMutability":"view"},{"type":"function","name":"hasValidIdentity","inputs":[{"name":"account","type":"address","internalType":"address"}],"outputs":[{"name":"","type":"bool","internalType":"bool"}],"stateMutability":"view"},{"type":"function","name":"identities","inputs":[{"name":"","type":"uint256","internalType":"uint256"}],"outputs":[{"name":"countryCode","type":"uint16","internalType":"uint16"},{"name":"accredited","type":"uint8","internalType":"uint8"},{"name":"expiry","type":"uint64","internalType":"uint64"},{"name":"kycHash","type":"bytes32","internalType":"bytes32"}],"stateMutability":"view"},{"type":"function","name":"renounceRole","inputs":[{"name":"role","type":"bytes32","internalType":"bytes32"},{"name":"callerConfirmation","type":"address","internalType":"address"}],"outputs":[],"stateMutability":"nonpayable"},{"type":"function","name":"revokeIdentity","inputs":[{"name":"account","type":"address","internalType":"address"}],"outputs":[],"stateMutability":"nonpayable"},{"type":"function","name":"revokeRole","inputs":[{"name":"role","type":"bytes32","internalType":"bytes32"},{"name":"account","type":"address","internalType":"address"}],"outputs":[],"stateMutability":"nonpayable"},{"type":"function","name":"supportsInterface","inputs":[{"name":"interfaceId","type":"bytes4","internalType":"bytes4"}],"outputs":[{"name":"","type":"bool","internalType":"bool"}],"stateMutability":"view"},{"type":"event","name":"IdentityAttested","inputs":[{"name":"account","type":"address","indexed":true,"internalType":"address"},{"name":"identityId","type":"uint256","indexed":true,"internalType":"uint256"}],"anonymous":false},{"type":"event","name":"IdentityRevoked","inputs":[{"name":"account","type":"address","indexed":true,"internalType":"address"},{"name":"identityId","type":"uint256","indexed":true,"internalType":"uint256"}],"anonymous":false},{"type":"event","name":"RoleAdminChanged","inputs":[{"name":"role","type":"bytes32","indexed":true,"internalType":"bytes32"},{"name":"previousAdminRole","type":"bytes32","indexed":true,"internalType":"bytes32"},{"name":"newAdminRole","type":"bytes32","indexed":true,"internalType":"bytes32"}],"anonymous":false},{"type":"event","name":"RoleGranted","inputs":[{"name":"role","type":"bytes32","indexed":true,"internalType":"bytes32"},{"name":"account","type":"address","indexed":true,"internalType":"address"},{"name":"sender","type":"address","indexed":true,"internalType":"address"}],"anonymous":false},{"type":"event","name":"RoleRevoked","inputs":[{"name":"role","type":"bytes32","indexed":true,"internalType":"bytes32"},{"name":"account","type":"address","indexed":true,"internalType":"address"},{"name":"sender","type":"address","indexed":true,"internalType":"address"}],"anonymous":false},{"type":"error","name":"AccessControlBadConfirmation","inputs":[]},{"type":"error","name":"AccessControlUnauthorizedAccount","inputs":[{"name":"account","type":"address","internalType":"address"},{"name":"neededRole","type":"bytes32","internalType":"bytes32"}]}],"bytecode":{"object":"0x60806040523461003157600160035561001733610035565b50610021336100b1565b506040516108a790816101508239f35b5f80fd5b6001600160a01b03165f8181527fad3228b676f7d3cd4284a5443f17f1962b36e491b30a40b2405849e597ba5fb5602052604081205490919060ff166100ad57818052816020526040822081835260205260408220600160ff1982541617905533915f805160206109f78339815191528180a4600190565b5090565b6001600160a01b03165f8181527f1cc1b714a06a87312844cc068c3d4b37d3e95f55dbc93d124629a4fd3f5c1d6060205260408120549091907f6c4079fcac94e7142d8c209744c998efe53a188aadb7e55958f7ad3ea8a1d6529060ff1661014a57808352826020526040832082845260205260408320600160ff198254161790555f805160206109f7833981519152339380a4600190565b50509056fe60806040818152600480361015610014575f80fd5b5f92833560e01c90816301ffc9a7146105b0575080630ebddd17146105255780631f390ab0146103af57806324019f7114610380578063248a9ca3146103575780632f2ff15d1461032e5780632fea7b811461027057806336568abe1461022957806391d14854146101e4578063a217fddf146101c9578063b4528ff914610191578063d547741f14610153578063d9e1063d146101145763eaaf77e6146100ba575f80fd5b3461011057602036600319011261011057608092829135815260026020522090600182549201549067ffffffffffffffff81519361ffff8116855260ff8160101c16602086015260181c16908301526060820152f35b8280fd5b50503461014f578160031936011261014f57602090517f6c4079fcac94e7142d8c209744c998efe53a188aadb7e55958f7ad3ea8a1d6528152f35b5080fd5b50903461011057806003193601126101105761018d9135610188600161017761061e565b9383875286602052862001546106e1565b61077e565b5080f35b50503461014f57602036600319011261014f5760209181906001600160a01b036101b9610604565b1681526001845220549051908152f35b50503461014f578160031936011261014f5751908152602090f35b50346101105781600319360112610110578160209360ff9261020461061e565b903582528186528282206001600160a01b039091168252855220549151911615158152f35b5091903461014f578060031936011261014f5761024461061e565b90336001600160a01b03831603610261575061018d91923561077e565b5163334bd91960e11b81528390fd5b50503461014f57602090816003193601126101105780608093610291610604565b81606061029c610634565b82815287810183905285810183905201526001600160a01b0316815260018452818120546102cb8115156107f1565b81526002845220906102db610634565b9180549061ffff82169485855260ff818601818560101c168152606060018789019567ffffffffffffffff809860181c168752015497019687528551978852511690860152511690830152516060820152f35b50903461011057806003193601126101105761018d9135610352600161017761061e565b610702565b503461011057602036600319011261011057816020936001923581528085522001549051908152f35b50503461014f57602036600319011261014f576020906103a66103a1610604565b610831565b90519015158152f35b5091903461014f5760a036600319011261014f576103cb610604565b906080366023190112610110576103e0610634565b61ffff602435818116810361052157825260443560ff81168103610521576020830190815260643567ffffffffffffffff92838216820361051d5785850191825260608501936084358552610433610668565b8251164210156104e757600354965f1988146104d45790600194939291858901600355858060a01b031696878a528560205288818b2055888a52600260205289209551166affffffffffffffff00000062ff00008754945160101b16925160181b16926affffffffffffffffffffff19161717178355519101557f45f4d25a83425373835bbbef1fb3387aa676db63b86a6cb1ee85b0ecc5ed4ec78380a380f35b634e487b7160e01b895260118a52602489fd5b855162461bcd60e51b81526020818b0152601060248201526f1259195b9d1a5d1e48195e1c1a5c995960821b6044820152606490fd5b8780fd5b8580fd5b50503461014f57602036600319011261014f57610540610604565b610548610668565b6001600160a01b031680835260016020528183205491839061056b8415156107f1565b8382526002602052816001828220828155015582825260016020528120557f3e3c59bb369a9da1f5c9df74adb044e1181c4e20448838f42d9e860bb0a18cdb8380a380f35b92505034610110576020366003190112610110573563ffffffff60e01b81168091036101105760209250637965db0b60e01b81149081156105f3575b5015158152f35b6301ffc9a760e01b1490505f6105ec565b600435906001600160a01b038216820361061a57565b5f80fd5b602435906001600160a01b038216820361061a57565b604051906080820182811067ffffffffffffffff82111761065457604052565b634e487b7160e01b5f52604160045260245ffd5b335f9081527f1cc1b714a06a87312844cc068c3d4b37d3e95f55dbc93d124629a4fd3f5c1d6060205260409020547f6c4079fcac94e7142d8c209744c998efe53a188aadb7e55958f7ad3ea8a1d6529060ff16156106c35750565b6044906040519063e2517d3f60e01b82523360048301526024820152fd5b805f525f60205260405f20335f5260205260ff60405f205416156106c35750565b905f9180835282602052604083209160018060a01b03169182845260205260ff604084205416155f1461077957808352826020526040832082845260205260408320600160ff198254161790557f2f8788117e7eff1d82e926ec794901d17c78024a50270940304540a733656f0d339380a4600190565b505090565b905f9180835282602052604083209160018060a01b03169182845260205260ff6040842054165f146107795780835282602052604083208284526020526040832060ff1981541690557ff6391f5c32d9c69d2a47ea670b442974b53935d1edc7fd64eb21e047a839171b339380a4600190565b156107f857565b60405162461bcd60e51b8152602060048201526011602482015270139bc81a59195b9d1a5d1e48199bdd5b99607a1b6044820152606490fd5b6001600160a01b03165f90815260016020526040902054801561086c575f52600260205267ffffffffffffffff60405f205460181c16421090565b505f9056fea2646970667358221220c0bb1f2e788a002bc02d69b8a01c0174a4c7deeb583ec39e46583630969f289764736f6c634300081400332f8788117e7eff1d82e926ec794901d17c78024a50270940304540a733656f0d","linkReferences":{}},"methodIdentifiers":{"DEFAULT_ADMIN_ROLE()":"a217fddf","KYC_PROVIDER_ROLE()":"d9e1063d","addressToIdentityId(address)":"b4528ff9","attestIdentity(address,(uint16,uint8,uint64,bytes32))":"1f390ab0","getIdentity(address)":"2fea7b81","getRoleAdmin(bytes32)":"248a9ca3","grantRole(bytes32,address)":"2f2ff15d","hasRole(bytes32,address)":"91d14854","hasValidIdentity(address)":"24019f71","identities(uint256)":"eaaf77e6","renounceRole(bytes32,address)":"36568abe","revokeIdentity(address)":"0ebddd17","revokeRole(bytes32,address)":"d547741f","supportsInterface(bytes4)":"01ffc9a7"},"id":34}