{"abi":[{"type":"constructor","inputs":[{"name":"_identityRegistry","type":"address","internalType":"address"}],"stateMutability":"nonpayable"},{"type":"function","name":"allowedJurisdictions","inputs":[{"name":"","type":"uint16","internalType":"uint16"}],"outputs":[{"name":"","type":"bool","internalType":"bool"}],"stateMutability":"view"},{"type":"function","name":"canTransfer","inputs":[{"name":"token","type":"address","internalType":"address"},{"name":"from","type":"address","internalType":"address"},{"name":"to","type":"address","internalType":"address"},{"name":"amount","type":"uint256","internalType":"uint256"}],"outputs":[{"name":"allowed","type":"bool","internalType":"bool"},{"name":"reason","type":"string","internalType":"string"}],"stateMutability":"view"},{"type":"function","name":"created","inputs":[{"name":"to","type":"address","internalType":"address"},{"name":"amount","type":"uint256","internalType":"uint256"}],"outputs":[],"stateMutability":"nonpayable"},{"type":"function","name":"destroyed","inputs":[{"name":"from","type":"address","internalType":"address"},{"name":"amount","type":"uint256","internalType":"uint256"}],"outputs":[],"stateMutability":"nonpayable"},{"type":"function","name":"identityRegistry","inputs":[],"outputs":[{"name":"","type":"address","internalType":"contract IdentityRegistry"}],"stateMutability":"view"},{"type":"function","name":"owner","inputs":[],"outputs":[{"name":"","type":"address","internalType":"address"}],"stateMutability":"view"},{"type":"function","name":"renounceOwnership","inputs":[],"outputs":[],"stateMutability":"nonpayable"},{"type":"function","name":"setIdentityRegistry","inputs":[{"name":"_identityRegistry","type":"address","internalType":"address"}],"outputs":[],"stateMutability":"nonpayable"},{"type":"function","name":"setJurisdictionAllowed","inputs":[{"name":"countryCode","type":"uint16","internalType":"uint16"},{"name":"allowed","type":"bool","internalType":"bool"}],"outputs":[],"stateMutability":"nonpayable"},{"type":"function","name":"setTokenCap","inputs":[{"name":"token","type":"address","internalType":"address"},{"name":"cap","type":"uint256","internalType":"uint256"}],"outputs":[],"stateMutability":"nonpayable"},{"type":"function","name":"setTokenLock","inputs":[{"name":"token","type":"address","internalType":"address"},{"name":"locked","type":"bool","internalType":"bool"}],"outputs":[],"stateMutability":"nonpayable"},{"type":"function","name":"tokenCaps","inputs":[{"name":"","type":"address","internalType":"address"}],"outputs":[{"name":"","type":"uint256","internalType":"uint256"}],"stateMutability":"view"},{"type":"function","name":"tokenLocks","inputs":[{"name":"","type":"address","internalType":"address"}],"outputs":[{"name":"","type":"bool","internalType":"bool"}],"stateMutability":"view"},{"type":"function","name":"transferOwnership","inputs":[{"name":"newOwner","type":"address","internalType":"address"}],"outputs":[],"stateMutability":"nonpayable"},{"type":"function","name":"transferred","inputs":[{"name":"from","type":"address","internalType":"address"},{"name":"to","type":"address","internalType":"address"},{"name":"amount","type":"uint256","internalType":"uint256"}],"outputs":[],"stateMutability":"nonpayable"},{"type":"event","name":"ComplianceRuleUpdated","inputs":[{"name":"ruleType","type":"string","indexed":true,"internalType":"string"},{"name":"key","type":"bytes32","indexed":true,"internalType":"bytes32"},{"name":"value","type":"bool","indexed":false,"internalType":"bool"}],"anonymous":false},{"type":"event","name":"OwnershipTransferred","inputs":[{"name":"previousOwner","type":"address","indexed":true,"internalType":"address"},{"name":"newOwner","type":"address","indexed":true,"internalType":"address"}],"anonymous":false},{"type":"error","name":"OwnableInvalidOwner","inputs":[{"name":"owner","type":"address","internalType":"address"}]},{"type":"error","name":"OwnableUnauthorizedAccount","inputs":[{"name":"account","type":"address","internalType":"address"}]}],"bytecode":{"object":"0x6080346100c257601f610cb338819003918201601f19168301916001600160401b038311848410176100c6578084926020946040528339810103126100c257516001600160a01b0390818116908190036100c25733156100aa575f5460018060a01b03199033828216175f55604051933391167f8be0079c531659141344cd1fd0a4f28419497f9722a3daafe3b4186f6b6457e05f80a36001541617600155610bd890816100db8239f35b604051631e4fbdf760e01b81525f6004820152602490fd5b5f80fd5b634e487b7160e01b5f52604160045260245ffdfe608060408181526004361015610013575f80fd5b5f91823560e01c908163134e18f41461056e575080631d47e4a3146104d957806356b63df71461049c5780635f8dead31461037d5780636d62a4fe14610403578063715018a6146103a95780638baf29b4146103825780638d2ea7721461037d5780638da5cb5b14610356578063b42da4b6146102b0578063cbf3f86114610268578063cfecaadd146101b9578063d69d2e7714610183578063e0f3871f1461014c5763f2fde38b146100c4575f80fd5b34610148576020366003190112610148576100dd610593565b6100e56105fe565b6001600160a01b03908116918215610131575082546001600160a01b0319811683178455167f8be0079c531659141344cd1fd0a4f28419497f9722a3daafe3b4186f6b6457e08380a380f35b51631e4fbdf760e01b815260048101849052602490fd5b5080fd5b50346101485760203660031901126101485760209181906001600160a01b03610173610593565b1681526003845220549051908152f35b50346101485760203660031901126101485760ff8160209361ffff6101a66105ed565b1681526002855220541690519015158152f35b50346101485780600319360112610148577f095292ca67c0def211ff2462b7f68926656720d97e04ea6a9beafa8062fbc8627f34fe7f288d22d632134303e0e4364e1f9eb81473ec15d597e98e4f8966ac32de60206102166105ed565b61ffff6102216105de565b9161022a6105fe565b16948587526002835261024b828289209060ff801983541691151516179055565b6b252aa924a9a224a1aa24a7a760a11b815152519015158152a380f35b82346102ad5760203660031901126102ad57610282610593565b61028a6105fe565b60018060a01b03166bffffffffffffffffffffffff60a01b600154161760015580f35b80fd5b50346101485780600319360112610148577ffc530b24510b924664e4cc98bd27ba37fd804f8cb2b1743b1bc15525a944ae937f34fe7f288d22d632134303e0e4364e1f9eb81473ec15d597e98e4f8966ac32de602061030d610593565b6103156105de565b9061031e6105fe565b6001600160a01b031680875260048352858720805460ff191660ff8415151617905594634c4f434b60e01b815152519015158152a380f35b5034610148578160031936011261014857905490516001600160a01b039091168152602090f35b6105c3565b82346102ad5760603660031901126102ad5761039c610593565b506103a56105ad565b5080f35b82346102ad57806003193601126102ad576103c26105fe565b80546001600160a01b03198116825581906001600160a01b03167f8be0079c531659141344cd1fd0a4f28419497f9722a3daafe3b4186f6b6457e08280a380f35b50346101485760803660031901126101485761041d610593565b6104256105ad565b906044356001600160a01b03811681036104985761044692606435926106cb565b918051938492151583526020828185015284518093850152815b83811061048157505060608094508284010152601f80199101168101030190f35b808601820151878201606001528694508101610460565b8480fd5b50346101485760203660031901126101485760209160ff9082906001600160a01b036104c6610593565b1681526004855220541690519015158152f35b50346101485780600319360112610148577fae84db5f261b79243f59814d93f1dbde51fca5310bcc93deb2f6cda7aa3395427f34fe7f288d22d632134303e0e4364e1f9eb81473ec15d597e98e4f8966ac32de6020610536610593565b602435906105426105fe565b6001600160a01b03168087526003835285872082905585516204341560ec1b905294519015158152a380f35b8390346101485781600319360112610148576001546001600160a01b03168152602090f35b600435906001600160a01b03821682036105a957565b5f80fd5b602435906001600160a01b03821682036105a957565b346105a95760403660031901126105a9576105dc610593565b005b6024359081151582036105a957565b6004359061ffff821682036105a957565b5f546001600160a01b0316330361061157565b60405163118cdaa760e01b8152336004820152602490fd5b6040810190811067ffffffffffffffff82111761064557604052565b634e487b7160e01b5f52604160045260245ffd5b6020810190811067ffffffffffffffff82111761064557604052565b6060810190811067ffffffffffffffff82111761064557604052565b90601f8019910116810190811067ffffffffffffffff82111761064557604052565b908160209103126105a9575180151581036105a95790565b93926001600160a01b03918216929091908315610afb578116908115610a4c578060015416906040968751956324019f7160e01b9081885260048801526020968781602481885afa908115610a42575f91610a25575b50156109e75788519081528460048201528681602481875afa9081156109dd575f916109b0575b5015610973571691825f526004855260ff875f20541661093e576080906024885180948193632fea7b8160e01b835260048301525afa80915f916108a0575b50906107d457505050633a34b7b760e11b5f937f43616e6e6f742076657269667920726563697069656e74206a757269736469638151936107c785610675565b6024855284015282015290565b61ffff9051165f526002835260ff855f2054161561085c575f5260038252835f20548015159182610852575b505061081a57506001915161081481610659565b5f815290565b7f5472616e73666572206578636565647320746f6b656e206361700000000000005f93519161084883610629565b601a835282015290565b1190505f80610800565b505061195960f21b5f937f526563697069656e74206a7572697364696374696f6e206e6f7420616c6c6f7781519361089385610675565b6022855284015282015290565b6080813d8211610936575b816108b860809383610691565b810103126101485787519167ffffffffffffffff906080840182811185821017610922578a52825161ffff811681036101485784528783015160ff8116810361014857888501528983015191821682036102ad57509060609189840152015160608201525f610787565b634e487b7160e01b82526041600452602482fd5b3d91506108ab565b5050505075151bdad95b881d1c985b9cd9995c9cc81b1bd8dad95960521b5f93519161096983610629565b6016835282015290565b50505050507f526563697069656e74206c61636b732076616c6964206964656e7469747900005f9351916109a683610629565b601e835282015290565b6109d09150873d89116109d6575b6109c88183610691565b8101906106b3565b5f610748565b503d6109be565b89513d5f823e3d90fd5b5050505050507f53656e646572206c61636b732076616c6964206964656e7469747900000000005f935191610a1b83610629565b601b835282015290565b610a3c9150883d8a116109d6576109c88183610691565b5f610721565b8a513d5f823e3d90fd5b91505060209192935060015416916024604051809481936324019f7160e01b835260048301525afa908115610af0575f91610ad2575b5015610a975760019060405161081481610659565b5f90604051610aa581610629565b601b81527f53656e646572206c61636b732076616c6964206964656e746974790000000000602082015290565b610aea915060203d81116109d6576109c88183610691565b5f610a82565b6040513d5f823e3d90fd5b6001546040516324019f7160e01b8152918316600483015294955093602093508492506024918391165afa908115610af0575f91610b84575b5015610b495760019060405161081481610659565b5f90604051610b5781610629565b601e81527f526563697069656e74206c61636b732076616c6964206964656e746974790000602082015290565b610b9c915060203d81116109d6576109c88183610691565b5f610b3456fea264697066735822122073031a966283aa32e25504b1f8f6cea38891d67ca99c262ed4efc431bc8ba3bc64736f6c63430008140033","linkReferences":{}},"methodIdentifiers":{"allowedJurisdictions(uint16)":"d69d2e77","canTransfer(address,address,address,uint256)":"6d62a4fe","created(address,uint256)":"5f8dead3","destroyed(address,uint256)":"8d2ea772","identityRegistry()":"134e18f4","owner()":"8da5cb5b","renounceOwnership()":"715018a6","setIdentityRegistry(address)":"cbf3f861","setJurisdictionAllowed(uint16,bool)":"cfecaadd","setTokenCap(address,uint256)":"1d47e4a3","setTokenLock(address,bool)":"b42da4b6","tokenCaps(address)":"e0f3871f","tokenLocks(address)":"56b63df7","transferOwnership(address)":"f2fde38b","transferred(address,address,uint256)":"8baf29b4"},"id":30}