{"abi":[{"type":"constructor","inputs":[{"name":"_identityRegistry","type":"address","internalType":"address"},{"name":"_complianceManager","type":"address","internalType":"address"}],"stateMutability":"nonpayable"},{"type":"function","name":"complianceManager","inputs":[],"outputs":[{"name":"","type":"address","internalType":"address"}],"stateMutability":"view"},{"type":"function","name":"createProperty","inputs":[{"name":"name","type":"string","internalType":"string"},{"name":"symbol","type":"string","internalType":"string"},{"name":"totalShares","type":"uint256","internalType":"uint256"}],"outputs":[{"name":"propertyId","type":"uint256","internalType":"uint256"},{"name":"shareToken","type":"address","internalType":"address"}],"stateMutability":"nonpayable"},{"type":"function","name":"getProperty","inputs":[{"name":"propertyId","type":"uint256","internalType":"uint256"}],"outputs":[{"name":"","type":"tuple","internalType":"struct Fractionalizer.Property","components":[{"name":"name","type":"string","internalType":"string"},{"name":"symbol","type":"string","internalType":"string"},{"name":"totalShares","type":"uint256","internalType":"uint256"},{"name":"shareToken","type":"address","internalType":"address"},{"name":"active","type":"bool","internalType":"bool"}]}],"stateMutability":"view"},{"type":"function","name":"identityRegistry","inputs":[],"outputs":[{"name":"","type":"address","internalType":"address"}],"stateMutability":"view"},{"type":"function","name":"owner","inputs":[],"outputs":[{"name":"","type":"address","internalType":"address"}],"stateMutability":"view"},{"type":"function","name":"properties","inputs":[{"name":"","type":"uint256","internalType":"uint256"}],"outputs":[{"name":"name","type":"string","internalType":"string"},{"name":"symbol","type":"string","internalType":"string"},{"name":"totalShares","type":"uint256","internalType":"uint256"},{"name":"shareToken","type":"address","internalType":"address"},{"name":"active","type":"bool","internalType":"bool"}],"stateMutability":"view"},{"type":"function","name":"redeemShares","inputs":[{"name":"propertyId","type":"uint256","internalType":"uint256"},{"name":"shares","type":"uint256","internalType":"uint256"}],"outputs":[],"stateMutability":"nonpayable"},{"type":"function","name":"renounceOwnership","inputs":[],"outputs":[],"stateMutability":"nonpayable"},{"type":"function","name":"setPropertyActive","inputs":[{"name":"propertyId","type":"uint256","internalType":"uint256"},{"name":"active","type":"bool","internalType":"bool"}],"outputs":[],"stateMutability":"nonpayable"},{"type":"function","name":"setRegistries","inputs":[{"name":"_identityRegistry","type":"address","internalType":"address"},{"name":"_complianceManager","type":"address","internalType":"address"}],"outputs":[],"stateMutability":"nonpayable"},{"type":"function","name":"tokenToPropertyId","inputs":[{"name":"","type":"address","internalType":"address"}],"outputs":[{"name":"","type":"uint256","internalType":"uint256"}],"stateMutability":"view"},{"type":"function","name":"transferOwnership","inputs":[{"name":"newOwner","type":"address","internalType":"address"}],"outputs":[],"stateMutability":"nonpayable"},{"type":"event","name":"OwnershipTransferred","inputs":[{"name":"previousOwner","type":"address","indexed":true,"internalType":"address"},{"name":"newOwner","type":"address","indexed":true,"internalType":"address"}],"anonymous":false},{"type":"event","name":"PropertyCreated","inputs":[{"name":"propertyId","type":"uint256","indexed":true,"internalType":"uint256"},{"name":"name","type":"string","indexed":false,"internalType":"string"},{"name":"symbol","type":"string","indexed":false,"internalType":"string"},{"name":"totalShares","type":"uint256","indexed":false,"internalType":"uint256"},{"name":"shareToken","type":"address","indexed":false,"internalType":"address"}],"anonymous":false},{"type":"event","name":"SharesRedeemed","inputs":[{"name":"propertyId","type":"uint256","indexed":true,"internalType":"uint256"},{"name":"account","type":"address","indexed":true,"internalType":"address"},{"name":"shares","type":"uint256","indexed":false,"internalType":"uint256"}],"anonymous":false},{"type":"error","name":"OwnableInvalidOwner","inputs":[{"name":"owner","type":"address","internalType":"address"}]},{"type":"error","name":"OwnableUnauthorizedAccount","inputs":[{"name":"account","type":"address","internalType":"address"}]}],"bytecode":{"object":"0x6080346100e557601f6126ca38819003918201601f19168301916001600160401b038311848410176100e95780849260409485528339810103126100e557610052602061004b836100fd565b92016100fd565b33156100cd575f8054336001600160a01b0319808316821784556040519590946001600160a01b03949093859391908416907f8be0079c531659141344cd1fd0a4f28419497f9722a3daafe3b4186f6b6457e09080a3600160035516836004541617600455169060055416176005556125b890816101128239f35b604051631e4fbdf760e01b81525f6004820152602490fd5b5f80fd5b634e487b7160e01b5f52604160045260245ffd5b51906001600160a01b03821682036100e55756fe6080604052600436101562000012575f80fd5b5f803560e01c8062d913e01462000bcd578063134e18f41462000ba25780631f6a111514620009bc57806324e9b512146200043357806332665ffb1462000333578063399bdf2a14620002c9578063715018a6146200026c5780638da5cb5b1462000243578063a47fbde11462000206578063f2fde38b1462000172578063f7b1080814620000d75763ff7bce2314620000aa575f80fd5b34620000d45780600319360112620000d4576005546040516001600160a01b039091168152602090f35b80fd5b5034620000d4576020366003190112620000d45760406200013d916004358152600160205220620001088162000d84565b9060ff620001196001830162000d84565b6200014c600360028501549401549160405196879660a0885260a088019062000cf2565b90868203602088015262000cf2565b60408501939093526001600160a01b038116606085015260a01c16151560808301520390f35b5034620000d4576020366003190112620000d4576200019062000d32565b6200019a62000e31565b6001600160a01b03908116908115620001ed575f54826bffffffffffffffffffffffff60a01b8216175f55167f8be0079c531659141344cd1fd0a4f28419497f9722a3daafe3b4186f6b6457e05f80a380f35b604051631e4fbdf760e01b815260048101849052602490fd5b5034620000d4576020366003190112620000d4576020906040906001600160a01b036200023262000d32565b168152600283522054604051908152f35b5034620000d45780600319360112620000d457546040516001600160a01b039091168152602090f35b5034620000d45780600319360112620000d4576200028962000e31565b5f80546001600160a01b0319811682556001600160a01b03167f8be0079c531659141344cd1fd0a4f28419497f9722a3daafe3b4186f6b6457e08280a380f35b5034620000d4576040366003190112620000d457620002e762000d32565b6024356001600160a01b0381811692918390036200032f576200030962000e31565b6bffffffffffffffffffffffff60a01b9116816004541617600455600554161760055580f35b5f80fd5b5034620000d4576020806003193601126200042f5760408260a093608083516200035d8162000c57565b606081526060868201528285820152826060820152015260043581526001835220604051916200038d8362000c57565b620003988262000d84565b8352620003a86001830162000d84565b90808401918252600360028401549360408601948552015491620004156060860191620004016001808a1b0394858716855260ff60808a01978b1c1615158752604051998a99828b5251918a015260c089019062000cf2565b9051878203601f1901604089015262000cf2565b935160608601525116608084015251151560a08301520390f35b5080fd5b5034620000d4576060366003190112620000d45760043567ffffffffffffffff81116200042f576200046a90369060040162000c97565b906024803567ffffffffffffffff8111620009b8576200048f90369060040162000c97565b6200049962000e31565b600354925f198414620009a55760018401600355600454600554604051916001600160a01b0390811691166117258084019067ffffffffffffffff82118583101762000992578493929160609162000e5e8639608081526200051262000503608083018d62000cf2565b82810360208401528962000cf2565b9360408201520152039082f09283156200098557604051620005348162000c57565b868152836020820152604435604082015260018060a01b038516606082015260016080820152858352600160205260408320815180519067ffffffffffffffff8211620008a757819062000589845462000d49565b601f811162000933575b50602090601f8311600114620008c6578792620008ba575b50508160011b915f199060031b1c19161781555b602082015180519067ffffffffffffffff8211620008a757620005e6600184015462000d49565b601f81116200085e575b50602090601f8311600114620007e45792826080936003936200066d97968a92620007d8575b50505f1982851b1c1916600191821b17908201555b6040840151600282015560608401519101805492909301516001600160a81b03199092166001600160a01b03919091161790151560a01b60ff60a01b16179055565b6001600160a01b0384168083526002602052604083208690553b156200042f576040516340c10f1960e01b81523360048201526044803560248301528390829081836001600160a01b038a165af18015620007cd57908391620007b5575b50506001600160a01b0384163b156200042f5760405163f2fde38b60e01b8152306004820152908290829081836001600160a01b0389165af18015620007aa5762000792575b50507f7c2386ddb9cf4c20a2495b0c65f9ecc27d38c5af2b88587642852b689c64ebc562000755604095620007648694885193849360808552608085019062000cf2565b90838203602085015262000cf2565b604435828901526001600160a01b03861660608301520390a282519182526001600160a01b03166020820152f35b6200079e829162000c2e565b620000d4578062000711565b6040513d84823e3d90fd5b620007c09062000c2e565b6200042f57815f620006cb565b6040513d85823e3d90fd5b015190505f8062000616565b906001840187526020872091875b601f1985168110620008455750836003936200066d979693600193608097601f198116106200082d575b505050811b0160018201556200062b565b01515f1983871b60f8161c191690555f80806200081c565b91926020600181928685015181550194019201620007f2565b60018401875260208720601f840160051c8101602085106200089f575b601f830160051c8201811062000893575050620005f0565b8881556001016200087b565b50806200087b565b634e487b7160e01b865260416004528486fd5b015190505f80620005ab565b9250838752602087209087935b601f198416851062000917576001945083601f19811610620008fe575b505050811b018155620005bf565b01515f1960f88460031b161c191690555f8080620008f0565b81810151835560209485019460019093019290910190620008d3565b90915083875260208720601f840160051c8101602085106200097d575b90849392915b601f830160051c820181106200096e57505062000593565b89815585945060010162000956565b508062000950565b50604051903d90823e3d90fd5b634e487b7160e01b865260416004528786fd5b634e487b7160e01b815260116004529050fd5b8280fd5b5034620000d4576040366003190112620000d45760043560243590808352602060018152600360408520015460ff8160a01c161562000b67576040516370a0823160e01b81523360048201526001600160a01b0391909116908281602481855afa801562000b5c578591879162000b21575b501062000ae657803b1562000ae257604051632770a7eb60e21b8152336004820152602481018590529085908290604490829084905af1801562000ad75762000aa1575b507f374ddac058d6545dd0b061fc8e54f7834b2459d35e96ce508588dd9ab07c701d906040519384523393a380f35b9362000acf7f374ddac058d6545dd0b061fc8e54f7834b2459d35e96ce508588dd9ab07c701d929562000c2e565b939062000a72565b6040513d87823e3d90fd5b8480fd5b60405162461bcd60e51b8152600481018390526013602482015272496e73756666696369656e742073686172657360681b6044820152606490fd5b809250848092503d831162000b54575b62000b3d818362000c74565b8101031262000b50578490515f62000a2e565b8580fd5b503d62000b31565b6040513d88823e3d90fd5b60405162461bcd60e51b815260048101839052601360248201527250726f7065727479206e6f742061637469766560681b6044820152606490fd5b5034620000d45780600319360112620000d4576004546040516001600160a01b039091168152602090f35b5034620000d4576040366003190112620000d45760243580151581036200042f5762000c2b9062000bfd62000e31565b6004358352600160205260408320600301805460ff60a01b191691151560a01b60ff60a01b16919091179055565b80f35b67ffffffffffffffff811162000c4357604052565b634e487b7160e01b5f52604160045260245ffd5b60a0810190811067ffffffffffffffff82111762000c4357604052565b90601f8019910116810190811067ffffffffffffffff82111762000c4357604052565b81601f820112156200032f5780359067ffffffffffffffff821162000c43576040519262000cd0601f8401601f19166020018562000c74565b828452602083830101116200032f57815f926020809301838601378301015290565b91908251928382525f5b84811062000d1d575050825f602080949584010152601f8019910116010190565b60208183018101518483018201520162000cfc565b600435906001600160a01b03821682036200032f57565b90600182811c9216801562000d79575b602083101462000d6557565b634e487b7160e01b5f52602260045260245ffd5b91607f169162000d59565b9060405191825f82549262000d998462000d49565b9081845260019485811690815f1462000e0c575060011462000dc8575b505062000dc69250038362000c74565b565b909391505f52602090815f20935f915b81831062000df357505062000dc693508201015f8062000db6565b8554888401850152948501948794509183019162000dd8565b91505062000dc694506020925060ff191682840152151560051b8201015f8062000db6565b5f546001600160a01b0316330362000e4557565b60405163118cdaa760e01b8152336004820152602490fdfe608060405234620003a45762001725803803806200001d81620003a8565b9283398101608082820312620003a45781516001600160401b039190828111620003a457816200004f918501620003ce565b6020918285015190848211620003a4576200006c918601620003ce565b9262000089606062000081604088016200043e565b96016200043e565b938251828111620002af576003918254916001958684811c9416801562000399575b8885101462000385578190601f9485811162000332575b508890858311600114620002cf575f92620002c3575b50505f1982861b1c191690861b1783555b8051938411620002af5760049586548681811c91168015620002a4575b82821014620002915783811162000249575b5080928511600114620001df57509383949184925f95620001d3575b50501b925f19911b1c19161781555b3315620001bc575060058054336001600160a01b031980831682179093556040519492936001600160a01b0393909284929083167f8be0079c531659141344cd1fd0a4f28419497f9722a3daafe3b4186f6b6457e05f80a316836006541617600655169060075416176007556112d19081620004548239f35b6024905f60405191631e4fbdf760e01b8352820152fd5b015193505f8062000134565b92919084601f198116885f52855f20955f905b898383106200022e575050501062000214575b50505050811b01815562000143565b01519060f8845f19921b161c191690555f80808062000205565b858701518955909701969485019488935090810190620001f2565b875f52815f208480880160051c82019284891062000287575b0160051c019087905b8281106200027b57505062000118565b5f81550187906200026b565b9250819262000262565b602288634e487b7160e01b5f525260245ffd5b90607f169062000106565b634e487b7160e01b5f52604160045260245ffd5b015190505f80620000d8565b90889350601f19831691875f528a5f20925f5b8c8282106200031b575050841162000303575b505050811b018355620000e9565b01515f1983881b60f8161c191690555f8080620002f5565b8385015186558c97909501949384019301620002e2565b909150855f52885f208580850160051c8201928b86106200037b575b918a91869594930160051c01915b8281106200036c575050620000c2565b5f81558594508a91016200035c565b925081926200034e565b634e487b7160e01b5f52602260045260245ffd5b93607f1693620000ab565b5f80fd5b6040519190601f01601f191682016001600160401b03811183821017620002af57604052565b919080601f84011215620003a45782516001600160401b038111620002af5760209062000404601f8201601f19168301620003a8565b92818452828287010111620003a4575f5b8181106200042a5750825f9394955001015290565b858101830151848201840152820162000415565b51906001600160a01b0382168203620003a45756fe6080604081815260049182361015610015575f80fd5b5f92833560e01c91826306fdde0314610d9157508163095ea7b314610ce7578163134e18f414610cbe57816318160ddd14610c9f57816323b872dd14610bac578163313ce56714610b905781633f4ba83a14610b2057816340c10f19146108815781635c975abb1461085a5781636290865d1461083157816370a08231146107fa578163715018a61461079d5781638456cb591461073c5781638da5cb5b1461071357816395d89b41146105f95781639dc29fac14610311578163a576b5da146102f4578163a9059cbb146102c3578163cbf3f8611461025b578163dd62ed3e1461020e578163f2fde38b1461017a57508063f89817891461014a5763ff7bce231461011f575f80fd5b3461014657816003193601126101465760075490516001600160a01b039091168152602090f35b5080fd5b823461017757602036600319011261017757610174610167610ec8565b61016f610ef8565b611256565b80f35b80fd5b90503461020a57602036600319011261020a57610195610ec8565b9061019e610ef8565b6001600160a01b039182169283156101f4575050600554826bffffffffffffffffffffffff60a01b821617600555167f8be0079c531659141344cd1fd0a4f28419497f9722a3daafe3b4186f6b6457e05f80a380f35b51631e4fbdf760e01b8152908101849052602490fd5b8280fd5b50503461014657806003193601126101465760209161022b610ec8565b82610234610ee2565b6001600160a01b03928316845260018652922091165f908152908352819020549051908152f35b833461017757602036600319011261017757610275610ec8565b61027d610ef8565b600680546001600160a01b0319166001600160a01b039290921691821790557fd2be862d755bca7e0d39772b2cab3a5578da9c285f69199f4c063c2294a7f36c8280a280f35b5050346101465780600319360112610146576020906102ed6102e3610ec8565b6024359033610f6e565b5160018152f35b833461017757602036600319011261017757610174610167610ec8565b83833461014657806003193601126101465761032b610ec8565b9060243593610338610ef8565b6001600160a01b03838116959086156105e257610353611235565b60848682600754168651928380926336b1527f60e11b825230898301528c60248301528460448301528760648301525afa9081156105d85787908892610524575b50156104c4575085877f3e0dec829a933a85a6f226ab0941c1c07f3f005e507450e2bc7be22246efed4960208751868152a386865285602052838620548281106104895787838899928993845283602052038683205583600254036002557fddf252ad1be2c89b69c2b068fc378daa952ba7f163c4a11628f55a4df523b3ef60208751868152a360075416803b1561048557835163469753b960e11b81526001600160a01b039095169285019283526020830191909152849184919082908490829060400103925af190811561047c575061046c5750f35b61047590610f24565b6101775780f35b513d84823e3d90fd5b8580fd5b935163391434e360e21b81526001600160a01b03909516928501928352506020820192909252604081019190915281906060010390fd5b0390fd5b90508386887f68727e8adaea5beadae8d54b7df10f6c4a866d4c301e85a38db089f43422ce196104c0956020985190815284898201528061050786820188610ea3565b0390a35193849362461bcd60e51b85528401526024830190610ea3565b9150503d8088833e6105368183610f4c565b81019085818303126105d45780519081151582036105d057602081015167ffffffffffffffff918282116105cc570183601f820112156105b55780519182116105b957875193610590601f8401601f191660200186610f4c565b828552602083830101116105b557906105af9160208086019101610e82565b89610394565b8980fd5b634e487b7160e01b8a526041875260248afd5b8a80fd5b8880fd5b8780fd5b85513d89823e3d90fd5b8351634b637e8f60e11b8152808401879052602490fd5b82843461017757806003193601126101775781519181845492600184811c91818616958615610709575b60209687851081146106f6579087899a92868b999a9b5291825f146106cc575050600114610671575b858861066d8961065e848a0385610f4c565b51928284938452830190610ea3565b0390f35b815286935091907f8a35acfbc15ff81a39ae7d344fd709f28e8600b4aa8c65c6b64bfe7fe36bd19b5b8284106106b4575050508201018161065e61066d8861064c565b8054848a01860152889550879490930192810161069a565b60ff19168882015294151560051b8701909401945085935061065e925061066d915089905061064c565b634e487b7160e01b835260228a52602483fd5b92607f1692610623565b50503461014657816003193601126101465760055490516001600160a01b039091168152602090f35b50503461014657816003193601126101465760207f62e78cea01bee320cd4e420270b5ea74000d11b0c9f74754ebdbfc544b05a2589161077a610ef8565b610782611235565b6005805460ff60a01b1916600160a01b17905551338152a180f35b83346101775780600319360112610177576107b6610ef8565b600580546001600160a01b031981169091555f906001600160a01b03167f8be0079c531659141344cd1fd0a4f28419497f9722a3daafe3b4186f6b6457e08280a380f35b5050346101465760203660031901126101465760209181906001600160a01b03610822610ec8565b16815280845220549051908152f35b50503461014657816003193601126101465760075490516001600160a01b039091168152602090f35b50503461014657816003193601126101465760209060ff60055460a01c1690519015158152f35b8391503461014657826003193601126101465761089c610ec8565b926024938435906108ab610ef8565b6001600160a01b038181168015610b0a576108c4611235565b8160075416878060848b895194859384926336b1527f60e11b84528d30908501528301528660448301528960648301525afa908115610b005788908992610a59575b50156109fa575080877f3e0dec829a933a85a6f226ab0941c1c07f3f005e507450e2bc7be22246efed4960208851888152a36002548481018091116109e85790879493929160025580855284602052858520848154019055847fddf252ad1be2c89b69c2b068fc378daa952ba7f163c4a11628f55a4df523b3ef60208851878152a36007541690813b156109e4578451635f8dead360e01b81526001600160a01b039091169581019586526020860192909252909384919082908490829060400103925af190811561047c57506109db575080f35b61017490610f24565b8380fd5b634e487b7160e01b8852601187528888fd5b6104c087918a886020958c7f68727e8adaea5beadae8d54b7df10f6c4a866d4c301e85a38db089f43422ce198b8451908152848a82015280610a3e86820189610ea3565b0390a35194859462461bcd60e51b8652850152830190610ea3565b9150503d8089833e610a6b8183610f4c565b81019086818303126105d05780519081151582036105b557602081015167ffffffffffffffff91828211610afc570183601f820112156105cc578051918211610aea57885193610ac5601f8401601f191660200186610f4c565b828552602083830101116105cc5790610ae49160208086019101610e82565b8a610906565b634e487b7160e01b8b5260418a528b8bfd5b8b80fd5b86513d8a823e3d90fd5b845163ec442f0560e01b81528087018890528890fd5b90503461020a578260031936011261020a57610b3a610ef8565b6005549060ff8260a01c1615610b82575060ff60a01b1916600555513381527f5db9ee0a495bf2e6ff9c91a7834c1ba4fdd244a5e8aa4e537bd38aeae4b073aa90602090a180f35b8251638dfc202b60e01b8152fd5b5050346101465781600319360112610146576020905160128152f35b9050823461017757606036600319011261017757610bc8610ec8565b610bd0610ee2565b916044359360018060a01b038316808352600160205286832033845260205286832054915f198310610c0b575b6020886102ed898989610f6e565b868310610c73578115610c5c573315610c45575082526001602090815286832033845281529186902090859003905582906102ed87610bfd565b8751634a1406b160e11b8152908101849052602490fd5b875163e602df0560e01b8152908101849052602490fd5b8751637dc7a0d960e11b8152339181019182526020820193909352604081018790528291506060010390fd5b5050346101465781600319360112610146576020906002549051908152f35b50503461014657816003193601126101465760065490516001600160a01b039091168152602090f35b90503461020a578160031936011261020a57610d01610ec8565b602435903315610d7a576001600160a01b0316918215610d6357508083602095338152600187528181208582528752205582519081527f8c5be1e5ebec7d5bd14f71427d1e84f3dd0314c0f7b2291e5b200ac8c7c3b925843392a35160018152f35b8351634a1406b160e11b8152908101859052602490fd5b835163e602df0560e01b8152808401869052602490fd5b8484346101465781600319360112610146578160035492600184811c91818616958615610e78575b60209687851081146106f6578899509688969785829a5291825f14610e51575050600114610df5575b50505061066d929161065e910385610f4c565b9190869350600383527fc2575a0e9e593c00f959f8c92f12db2869c3395a3b0502d05e2516446f71f85b5b828410610e39575050508201018161065e61066d610de2565b8054848a018601528895508794909301928101610e20565b60ff19168782015293151560051b8601909301935084925061065e915061066d9050610de2565b92607f1692610db9565b5f5b838110610e935750505f910152565b8181015183820152602001610e84565b90602091610ebc81518092818552858086019101610e82565b601f01601f1916010190565b600435906001600160a01b0382168203610ede57565b5f80fd5b602435906001600160a01b0382168203610ede57565b6005546001600160a01b03163303610f0c57565b60405163118cdaa760e01b8152336004820152602490fd5b67ffffffffffffffff8111610f3857604052565b634e487b7160e01b5f52604160045260245ffd5b90601f8019910116810190811067ffffffffffffffff821117610f3857604052565b906001600160a01b039081831690811561121d57821690811561120557610f93611235565b826007541692604094855180956336b1527f60e11b82523060048301528460248301528560448301528860648301528160845f9889935afa9081156111fb5786908792611152575b50156110f0575083837f3e0dec829a933a85a6f226ab0941c1c07f3f005e507450e2bc7be22246efed49602089518b8152a38285528460205285852054908782106110bf5750869083865285602052038585205582845284842086815401905582827fddf252ad1be2c89b69c2b068fc378daa952ba7f163c4a11628f55a4df523b3ef602088518a8152a360075416803b156109e45783929183606492875198899586946322ebca6d60e21b86526004860152602485015260448401525af19182156110b55750506110aa5750565b6110b390610f24565b565b51903d90823e3d90fd5b865163391434e360e21b81526001600160a01b03919091166004820152602481019190915260448101879052606490fd5b6104c0908786867f68727e8adaea5beadae8d54b7df10f6c4a866d4c301e85a38db089f43422ce198c84519081528460208201528061113186820188610ea3565b0390a35162461bcd60e51b8152602060048201529182916024830190610ea3565b9150503d8087833e6111648183610f4c565b81019087818303126111f75780519081151582036105d457602081015167ffffffffffffffff918282116105b5570183601f820112156105d05780519182116111e3578951936111be601f8401601f191660200186610f4c565b828552602083830101116105d057906111dd9160208086019101610e82565b5f610fdb565b634e487b7160e01b89526041600452602489fd5b8680fd5b87513d88823e3d90fd5b60405163ec442f0560e01b81525f6004820152602490fd5b604051634b637e8f60e11b81525f6004820152602490fd5b60ff60055460a01c1661124457565b60405163d93c066560e01b8152600490fd5b600780546001600160a01b0319166001600160a01b039290921691821790557f7f3a888862559648ec01d97deb7b5012bff86dc91e654a1de397170db40e35b65f80a256fea2646970667358221220df1d1bb045b51ed9b3ca7a7a7fb2fd7f3f434be13e3571f2bad48692f233a6e864736f6c63430008140033a26469706673582212207bb7cd97823c298c4dde4664618c06c6cfa02a8457115630d17622a4e8cf9f6c64736f6c63430008140033","linkReferences":{}},"methodIdentifiers":{"complianceManager()":"ff7bce23","createProperty(string,string,uint256)":"24e9b512","getProperty(uint256)":"32665ffb","identityRegistry()":"134e18f4","owner()":"8da5cb5b","properties(uint256)":"f7b10808","redeemShares(uint256,uint256)":"1f6a1115","renounceOwnership()":"715018a6","setPropertyActive(uint256,bool)":"00d913e0","setRegistries(address,address)":"399bdf2a","tokenToPropertyId(address)":"a47fbde1","transferOwnership(address)":"f2fde38b"},"id":32}