{"abi":[{"type":"constructor","inputs":[{"name":"_registry","type":"address","internalType":"address"}],"stateMutability":"nonpayable"},{"type":"function","name":"createExpiredIdentity","inputs":[{"name":"account","type":"address","internalType":"address"}],"outputs":[],"stateMutability":"nonpayable"},{"type":"function","name":"createForeignIdentity","inputs":[{"name":"account","type":"address","internalType":"address"},{"name":"countryCode","type":"uint16","internalType":"uint16"}],"outputs":[],"stateMutability":"nonpayable"},{"type":"function","name":"createValidIdentity","inputs":[{"name":"account","type":"address","internalType":"address"}],"outputs":[],"stateMutability":"nonpayable"},{"type":"function","name":"registry","inputs":[],"outputs":[{"name":"","type":"address","internalType":"contract IdentityRegistry"}],"stateMutability":"view"}],"bytecode":{"object":"0x60a03461008057601f61057a38819003918201601f19168301916001600160401b038311848410176100845780849260209460405283398101031261008057516001600160a01b03811690819003610080576080526040516104e19081610099823960805181818160e90152818161019b0152818161025d01526103620152f35b5f80fd5b634e487b7160e01b5f52604160045260245ffdfe608060409080825260049182361015610016575f80fd5b5f91823560e01c90816315f5b74f146102d3575080636b36651f146101ca5780637b103999146101875763a3a09b251461004e575f80fd5b346101835780600319360112610183576100666103e8565b906024359361ffff851680860361017f576301e13380420180421161016c5767ffffffffffffffff8697855160208101916001600160601b03198960601b16835261ffff60f01b9060f01b166034820152601681526100c481610446565b519020918551936100d485610402565b845260016020850152168483015260608201527f00000000000000000000000000000000000000000000000000000000000000006001600160a01b0316803b1561016857610139948680948651978895869485936301f390ab60e41b85528401610462565b03925af190811561015f575061014c5750f35b61015590610432565b61015c5780f35b80fd5b513d84823e3d90fd5b8580fd5b634e487b7160e01b865260118352602486fd5b8480fd5b5080fd5b5034610183578160031936011261018357517f00000000000000000000000000000000000000000000000000000000000000006001600160a01b03168152602090f35b5034610183576020366003190112610183576101e46103e8565b906301e133804201938442116102c05781519460208601906001600160601b03198560601b16825242603488015260348752606087019167ffffffffffffffff90888410828511176102ad579760c0918899858852825190209361024786610402565b6103488652600160808401521660a082015201527f00000000000000000000000000000000000000000000000000000000000000006001600160a01b0316803b1561016857610139948680948651978895869485936301f390ab60e41b85528401610462565b604185634e487b7160e01b5f525260245ffd5b634e487b7160e01b845260119052602483fd5b84929150346103d15760203660031901126103d1576102f06103e8565b5f194201914283116103d5579081602087949301906001600160601b03198360601b16825266195e1c1a5c995960ca1b6034820152601b815261033281610446565b51902067ffffffffffffffff85519361034a85610402565b610348855260016020860152168584015260608301527f00000000000000000000000000000000000000000000000000000000000000006001600160a01b031690813b156103d157836103b1968651978895869485936301f390ab60e41b85528401610462565b03925af190811561015f57506103c5575080f35b6103ce90610432565b80f35b8380fd5b634e487b7160e01b865260118552602486fd5b600435906001600160a01b03821682036103fe57565b5f80fd5b6080810190811067ffffffffffffffff82111761041e57604052565b634e487b7160e01b5f52604160045260245ffd5b67ffffffffffffffff811161041e57604052565b6040810190811067ffffffffffffffff82111761041e57604052565b909291606060809160a084019560018060a01b0316845261ffff815116602085015260ff602082015116604085015267ffffffffffffffff60408201511682850152015191015256fea264697066735822122019de36a6b0f3d03cf0337e549f8495d8509afb1e3b4c1aa2eb58c1950da5fbc664736f6c63430008140033","linkReferences":{}},"methodIdentifiers":{"createExpiredIdentity(address)":"15f5b74f","createForeignIdentity(address,uint16)":"a3a09b25","createValidIdentity(address)":"6b36651f","registry()":"7b103999"},"id":41}